{
    "contractName": "MintAssoTransHTS",
    "abi": [
        {
            "inputs": [
                {
                    "internalType": "address",
                    "name": "_tokenAddress",
                    "type": "address"
                }
            ],
            "stateMutability": "nonpayable",
            "type": "constructor"
        },
        {
            "inputs": [
                {
                    "internalType": "int64",
                    "name": "_amount",
                    "type": "int64"
                }
            ],
            "name": "mintFungibleToken",
            "outputs": [],
            "stateMutability": "nonpayable",
            "type": "function"
        },
        {
            "inputs": [
                {
                    "internalType": "address",
                    "name": "_account",
                    "type": "address"
                }
            ],
            "name": "tokenAssociate",
            "outputs": [],
            "stateMutability": "nonpayable",
            "type": "function"
        },
        {
            "inputs": [
                {
                    "internalType": "address",
                    "name": "_sender",
                    "type": "address"
                },
                {
                    "internalType": "address",
                    "name": "_receiver",
                    "type": "address"
                },
                {
                    "internalType": "int64",
                    "name": "_amount",
                    "type": "int64"
                }
            ],
            "name": "tokenTransfer",
            "outputs": [],
            "stateMutability": "nonpayable",
            "type": "function"
        }
    ],
    "bytecode": "608060405234801561001057600080fd5b5060405161083238038061083283398101604081905261002f91610054565b600080546001600160a01b0319166001600160a01b0392909216919091179055610084565b60006020828403121561006657600080fd5b81516001600160a01b038116811461007d57600080fd5b9392505050565b61079f806100936000396000f3fe608060405234801561001057600080fd5b50600436106100415760003560e01c806306bb80f3146100465780631a2a5e151461005b578063955c12bb1461006e575b600080fd5b6100596100543660046104ae565b610081565b005b6100596100693660046104ee565b61011e565b61005961007c366004610509565b61017f565b60408051600080825260208201909252816100ac565b60608152602001906001900390816100975790505b506000805491925090819081906100cd906001600160a01b031686866101e2565b91945092509050601683146101175760405162461bcd60e51b815260206004820152600b60248201526a135a5b9d0811985a5b195960aa1b60448201526064015b60405180910390fd5b5050505050565b600080546101369083906001600160a01b03166102e0565b90506016811461017b5760405162461bcd60e51b815260206004820152601060248201526f105cdcdbd8da585d194811985a5b195960821b604482015260640161010e565b5050565b60008054610198906001600160a01b03168585856103b4565b9050601681146101dc5760405162461bcd60e51b815260206004820152600f60248201526e151c985b9cd9995c8811985a5b1959608a1b604482015260640161010e565b50505050565b60008060606000806101676001600160a01b031663278e0b8860e01b8989896040516024016102139392919061058a565b60408051601f198184030181529181526020820180516001600160e01b03166001600160e01b03199094169390931790925290516102519190610625565b6000604051808303816000865af19150503d806000811461028e576040519150601f19603f3d011682016040523d82523d6000602084013e610293565b606091505b5091509150816102b65760408051600080825260208201909252601591906102ca565b808060200190518101906102ca919061065e565b60039290920b9a90995090975095505050505050565b604080516001600160a01b038481166024830152831660448083019190915282518083039091018152606490910182526020810180516001600160e01b031663248a35ef60e11b179052905160009182918291610167916103419190610625565b6000604051808303816000865af19150503d806000811461037e576040519150601f19603f3d011682016040523d82523d6000602084013e610383565b606091505b5091509150816103945760156103a8565b808060200190518101906103a8919061074e565b60030b95945050505050565b604080516001600160a01b038681166024830152858116604483015284166064820152600783900b6084808301919091528251808303909101815260a490910182526020810180516001600160e01b031663eca3691760e01b179052905160009182918291610167916104279190610625565b6000604051808303816000865af19150503d8060008114610464576040519150601f19603f3d011682016040523d82523d6000602084013e610469565b606091505b50915091508161047a57601561048e565b8080602001905181019061048e919061074e565b60030b979650505050505050565b8060070b81146104ab57600080fd5b50565b6000602082840312156104c057600080fd5b81356104cb8161049c565b9392505050565b80356001600160a01b03811681146104e957600080fd5b919050565b60006020828403121561050057600080fd5b6104cb826104d2565b60008060006060848603121561051e57600080fd5b610527846104d2565b9250610535602085016104d2565b915060408401356105458161049c565b809150509250925092565b634e487b7160e01b600052604160045260246000fd5b60005b83811015610581578181015183820152602001610569565b50506000910152565b60006060820160018060a01b0386168352602067ffffffffffffffff8616818501526060604085015281855180845260808601915060808160051b870101935082870160005b8281101561061657878603607f19018452815180518088526105f781888a01898501610566565b601f01601f1916969096018501955092840192908401906001016105d0565b50939998505050505050505050565b60008251610637818460208701610566565b9190910192915050565b8051600381900b81146104e957600080fd5b80516104e98161049c565b60008060006060848603121561067357600080fd5b61067c84610641565b925060208085015167ffffffffffffffff808216821461069b57600080fd5b6040870151919450808211156106b057600080fd5b818701915087601f8301126106c457600080fd5b8151818111156106d6576106d6610550565b8060051b604051601f19603f830116810181811085821117156106fb576106fb610550565b60405291825284820192508381018501918a83111561071957600080fd5b938501935b8285101561073e5761072f85610653565b8452938501939285019261071e565b8096505050505050509250925092565b60006020828403121561076057600080fd5b6104cb8261064156fea2646970667358221220a1b5f8a21e8155431c7430f0c3cd05b77711a9f002dbf638253fc053e2f22c2e64736f6c63430008130033",
    "sourcePath": "c:/hedera2/MintAssociateTransferHTS.sol",
    "compiler": {
        "name": "solc",
        "version": "0.8.19+commit.7dd6d404"
    },
    "functionHashes": {
        "mintFungibleToken(int64)": "06bb80f3",
        "tokenAssociate(address)": "1a2a5e15",
        "tokenTransfer(address,address,int64)": "955c12bb"
    },
    "gasEstimates": {
        "creation": {
            "codeDepositCost": "390200",
            "executionCost": "infinite",
            "totalCost": "infinite"
        },
        "external": {
            "mintFungibleToken(int64)": "infinite",
            "tokenAssociate(address)": "infinite",
            "tokenTransfer(address,address,int64)": "infinite"
        }
    }
}